{
  "address": "0x5FbDB2315678afecb367f032d93F642f64180aa3",
  "abi": [
    {
      "inputs": [],
      "stateMutability": "nonpayable",
      "type": "constructor"
    },
    {
      "inputs": [
        {
          "internalType": "address",
          "name": "sender",
          "type": "address"
        },
        {
          "internalType": "uint256",
          "name": "tokenId",
          "type": "uint256"
        },
        {
          "internalType": "address",
          "name": "owner",
          "type": "address"
        }
      ],
      "name": "ERC721IncorrectOwner",
      "type": "error"
    },
    {
      "inputs": [
        {
          "internalType": "address",
          "name": "operator",
          "type": "address"
        },
        {
          "internalType": "uint256",
          "name": "tokenId",
          "type": "uint256"
        }
      ],
      "name": "ERC721InsufficientApproval",
      "type": "error"
    },
    {
      "inputs": [
        {
          "internalType": "address",
          "name": "approver",
          "type": "address"
        }
      ],
      "name": "ERC721InvalidApprover",
      "type": "error"
    },
    {
      "inputs": [
        {
          "internalType": "address",
          "name": "operator",
          "type": "address"
        }
      ],
      "name": "ERC721InvalidOperator",
      "type": "error"
    },
    {
      "inputs": [
        {
          "internalType": "address",
          "name": "owner",
          "type": "address"
        }
      ],
      "name": "ERC721InvalidOwner",
      "type": "error"
    },
    {
      "inputs": [
        {
          "internalType": "address",
          "name": "receiver",
          "type": "address"
        }
      ],
      "name": "ERC721InvalidReceiver",
      "type": "error"
    },
    {
      "inputs": [
        {
          "internalType": "address",
          "name": "sender",
          "type": "address"
        }
      ],
      "name": "ERC721InvalidSender",
      "type": "error"
    },
    {
      "inputs": [
        {
          "internalType": "uint256",
          "name": "tokenId",
          "type": "uint256"
        }
      ],
      "name": "ERC721NonexistentToken",
      "type": "error"
    },
    {
      "inputs": [
        {
          "internalType": "address",
          "name": "owner",
          "type": "address"
        }
      ],
      "name": "OwnableInvalidOwner",
      "type": "error"
    },
    {
      "inputs": [
        {
          "internalType": "address",
          "name": "account",
          "type": "address"
        }
      ],
      "name": "OwnableUnauthorizedAccount",
      "type": "error"
    },
    {
      "anonymous": false,
      "inputs": [
        {
          "indexed": true,
          "internalType": "address",
          "name": "owner",
          "type": "address"
        },
        {
          "indexed": true,
          "internalType": "address",
          "name": "approved",
          "type": "address"
        },
        {
          "indexed": true,
          "internalType": "uint256",
          "name": "tokenId",
          "type": "uint256"
        }
      ],
      "name": "Approval",
      "type": "event"
    },
    {
      "anonymous": false,
      "inputs": [
        {
          "indexed": true,
          "internalType": "address",
          "name": "owner",
          "type": "address"
        },
        {
          "indexed": true,
          "internalType": "address",
          "name": "operator",
          "type": "address"
        },
        {
          "indexed": false,
          "internalType": "bool",
          "name": "approved",
          "type": "bool"
        }
      ],
      "name": "ApprovalForAll",
      "type": "event"
    },
    {
      "anonymous": false,
      "inputs": [
        {
          "indexed": false,
          "internalType": "uint256",
          "name": "_fromTokenId",
          "type": "uint256"
        },
        {
          "indexed": false,
          "internalType": "uint256",
          "name": "_toTokenId",
          "type": "uint256"
        }
      ],
      "name": "BatchMetadataUpdate",
      "type": "event"
    },
    {
      "anonymous": false,
      "inputs": [
        {
          "indexed": false,
          "internalType": "uint256",
          "name": "_tokenId",
          "type": "uint256"
        }
      ],
      "name": "MetadataUpdate",
      "type": "event"
    },
    {
      "anonymous": false,
      "inputs": [
        {
          "indexed": true,
          "internalType": "address",
          "name": "previousOwner",
          "type": "address"
        },
        {
          "indexed": true,
          "internalType": "address",
          "name": "newOwner",
          "type": "address"
        }
      ],
      "name": "OwnershipTransferred",
      "type": "event"
    },
    {
      "anonymous": false,
      "inputs": [
        {
          "indexed": true,
          "internalType": "address",
          "name": "from",
          "type": "address"
        },
        {
          "indexed": true,
          "internalType": "address",
          "name": "to",
          "type": "address"
        },
        {
          "indexed": true,
          "internalType": "uint256",
          "name": "tokenId",
          "type": "uint256"
        }
      ],
      "name": "Transfer",
      "type": "event"
    },
    {
      "inputs": [
        {
          "internalType": "address",
          "name": "to",
          "type": "address"
        },
        {
          "internalType": "uint256",
          "name": "tokenId",
          "type": "uint256"
        }
      ],
      "name": "approve",
      "outputs": [],
      "stateMutability": "nonpayable",
      "type": "function"
    },
    {
      "inputs": [
        {
          "internalType": "address",
          "name": "owner",
          "type": "address"
        }
      ],
      "name": "balanceOf",
      "outputs": [
        {
          "internalType": "uint256",
          "name": "",
          "type": "uint256"
        }
      ],
      "stateMutability": "view",
      "type": "function"
    },
    {
      "inputs": [
        {
          "internalType": "address",
          "name": "to",
          "type": "address"
        },
        {
          "internalType": "string",
          "name": "tokenURI",
          "type": "string"
        }
      ],
      "name": "create",
      "outputs": [],
      "stateMutability": "nonpayable",
      "type": "function"
    },
    {
      "inputs": [],
      "name": "getAllTokenURI",
      "outputs": [
        {
          "components": [
            {
              "internalType": "address",
              "name": "ownerOfNFT",
              "type": "address"
            },
            {
              "internalType": "uint256",
              "name": "tokenId",
              "type": "uint256"
            },
            {
              "internalType": "string",
              "name": "tokenURI",
              "type": "string"
            }
          ],
          "internalType": "struct NFT.NFTdata[]",
          "name": "",
          "type": "tuple[]"
        }
      ],
      "stateMutability": "view",
      "type": "function"
    },
    {
      "inputs": [
        {
          "internalType": "uint256",
          "name": "tokenId",
          "type": "uint256"
        }
      ],
      "name": "getApproved",
      "outputs": [
        {
          "internalType": "address",
          "name": "",
          "type": "address"
        }
      ],
      "stateMutability": "view",
      "type": "function"
    },
    {
      "inputs": [],
      "name": "getCurrentTokenId",
      "outputs": [
        {
          "internalType": "uint256",
          "name": "",
          "type": "uint256"
        }
      ],
      "stateMutability": "view",
      "type": "function"
    },
    {
      "inputs": [
        {
          "internalType": "uint256",
          "name": "tokenId",
          "type": "uint256"
        }
      ],
      "name": "getTokenURI",
      "outputs": [
        {
          "internalType": "string",
          "name": "",
          "type": "string"
        }
      ],
      "stateMutability": "view",
      "type": "function"
    },
    {
      "inputs": [
        {
          "internalType": "address",
          "name": "owner",
          "type": "address"
        },
        {
          "internalType": "address",
          "name": "operator",
          "type": "address"
        }
      ],
      "name": "isApprovedForAll",
      "outputs": [
        {
          "internalType": "bool",
          "name": "",
          "type": "bool"
        }
      ],
      "stateMutability": "view",
      "type": "function"
    },
    {
      "inputs": [],
      "name": "name",
      "outputs": [
        {
          "internalType": "string",
          "name": "",
          "type": "string"
        }
      ],
      "stateMutability": "view",
      "type": "function"
    },
    {
      "inputs": [
        {
          "internalType": "uint256",
          "name": "",
          "type": "uint256"
        }
      ],
      "name": "nftdata",
      "outputs": [
        {
          "internalType": "address",
          "name": "ownerOfNFT",
          "type": "address"
        },
        {
          "internalType": "uint256",
          "name": "tokenId",
          "type": "uint256"
        },
        {
          "internalType": "string",
          "name": "tokenURI",
          "type": "string"
        }
      ],
      "stateMutability": "view",
      "type": "function"
    },
    {
      "inputs": [],
      "name": "owner",
      "outputs": [
        {
          "internalType": "address",
          "name": "",
          "type": "address"
        }
      ],
      "stateMutability": "view",
      "type": "function"
    },
    {
      "inputs": [
        {
          "internalType": "uint256",
          "name": "tokenId",
          "type": "uint256"
        }
      ],
      "name": "ownerOf",
      "outputs": [
        {
          "internalType": "address",
          "name": "",
          "type": "address"
        }
      ],
      "stateMutability": "view",
      "type": "function"
    },
    {
      "inputs": [],
      "name": "renounceOwnership",
      "outputs": [],
      "stateMutability": "nonpayable",
      "type": "function"
    },
    {
      "inputs": [
        {
          "internalType": "address",
          "name": "from",
          "type": "address"
        },
        {
          "internalType": "address",
          "name": "to",
          "type": "address"
        },
        {
          "internalType": "uint256",
          "name": "tokenId",
          "type": "uint256"
        }
      ],
      "name": "safeTransferFrom",
      "outputs": [],
      "stateMutability": "nonpayable",
      "type": "function"
    },
    {
      "inputs": [
        {
          "internalType": "address",
          "name": "from",
          "type": "address"
        },
        {
          "internalType": "address",
          "name": "to",
          "type": "address"
        },
        {
          "internalType": "uint256",
          "name": "tokenId",
          "type": "uint256"
        },
        {
          "internalType": "bytes",
          "name": "data",
          "type": "bytes"
        }
      ],
      "name": "safeTransferFrom",
      "outputs": [],
      "stateMutability": "nonpayable",
      "type": "function"
    },
    {
      "inputs": [
        {
          "internalType": "address",
          "name": "operator",
          "type": "address"
        },
        {
          "internalType": "bool",
          "name": "approved",
          "type": "bool"
        }
      ],
      "name": "setApprovalForAll",
      "outputs": [],
      "stateMutability": "nonpayable",
      "type": "function"
    },
    {
      "inputs": [
        {
          "internalType": "bytes4",
          "name": "interfaceId",
          "type": "bytes4"
        }
      ],
      "name": "supportsInterface",
      "outputs": [
        {
          "internalType": "bool",
          "name": "",
          "type": "bool"
        }
      ],
      "stateMutability": "view",
      "type": "function"
    },
    {
      "inputs": [],
      "name": "symbol",
      "outputs": [
        {
          "internalType": "string",
          "name": "",
          "type": "string"
        }
      ],
      "stateMutability": "view",
      "type": "function"
    },
    {
      "inputs": [
        {
          "internalType": "uint256",
          "name": "tokenId",
          "type": "uint256"
        }
      ],
      "name": "tokenURI",
      "outputs": [
        {
          "internalType": "string",
          "name": "",
          "type": "string"
        }
      ],
      "stateMutability": "view",
      "type": "function"
    },
    {
      "inputs": [
        {
          "internalType": "address",
          "name": "from",
          "type": "address"
        },
        {
          "internalType": "address",
          "name": "to",
          "type": "address"
        },
        {
          "internalType": "uint256",
          "name": "tokenId",
          "type": "uint256"
        }
      ],
      "name": "transferFrom",
      "outputs": [],
      "stateMutability": "nonpayable",
      "type": "function"
    },
    {
      "inputs": [
        {
          "internalType": "address",
          "name": "newOwner",
          "type": "address"
        }
      ],
      "name": "transferOwnership",
      "outputs": [],
      "stateMutability": "nonpayable",
      "type": "function"
    }
  ],
  "transactionHash": "0x6076df7e19d60dce8c724bb9ddc77a0ebda36b19430362db5d4cd673624b7f91",
  "args": [],
  "numDeployments": 1,
  "solcInputHash": "2abb9bb7386b2b55de86b5f64b532537",
  "bytecode": "0x60806040523480156200001157600080fd5b50336040518060400160405280600581526020017f4d794e46540000000000000000000000000000000000000000000000000000008152506040518060400160405280600281526020017f4e46000000000000000000000000000000000000000000000000000000000000815250816000908162000090919062000472565b508060019081620000a2919062000472565b505050600073ffffffffffffffffffffffffffffffffffffffff168173ffffffffffffffffffffffffffffffffffffffff16036200011a5760006040517f1e4fbdf70000000000000000000000000000000000000000000000000000000081526004016200011191906200059e565b60405180910390fd5b6200012b816200013260201b60201c565b50620005bb565b6000600760009054906101000a900473ffffffffffffffffffffffffffffffffffffffff16905081600760006101000a81548173ffffffffffffffffffffffffffffffffffffffff021916908373ffffffffffffffffffffffffffffffffffffffff1602179055508173ffffffffffffffffffffffffffffffffffffffff168173ffffffffffffffffffffffffffffffffffffffff167f8be0079c531659141344cd1fd0a4f28419497f9722a3daafe3b4186f6b6457e060405160405180910390a35050565b600081519050919050565b7f4e487b7100000000000000000000000000000000000000000000000000000000600052604160045260246000fd5b7f4e487b7100000000000000000000000000000000000000000000000000000000600052602260045260246000fd5b600060028204905060018216806200027a57607f821691505b60208210810362000290576200028f62000232565b5b50919050565b60008190508160005260206000209050919050565b60006020601f8301049050919050565b600082821b905092915050565b600060088302620002fa7fffffffffffffffffffffffffffffffffffffffffffffffffffffffffffffffff82620002bb565b620003068683620002bb565b95508019841693508086168417925050509392505050565b6000819050919050565b6000819050919050565b6000620003536200034d62000347846200031e565b62000328565b6200031e565b9050919050565b6000819050919050565b6200036f8362000332565b620003876200037e826200035a565b848454620002c8565b825550505050565b600090565b6200039e6200038f565b620003ab81848462000364565b505050565b5b81811015620003d357620003c760008262000394565b600181019050620003b1565b5050565b601f8211156200042257620003ec8162000296565b620003f784620002ab565b8101602085101562000407578190505b6200041f6200041685620002ab565b830182620003b0565b50505b505050565b600082821c905092915050565b6000620004476000198460080262000427565b1980831691505092915050565b600062000462838362000434565b9150826002028217905092915050565b6200047d82620001f8565b67ffffffffffffffff81111562000499576200049862000203565b5b620004a5825462000261565b620004b2828285620003d7565b600060209050601f831160018114620004ea5760008415620004d5578287015190505b620004e1858262000454565b86555062000551565b601f198416620004fa8662000296565b60005b828110156200052457848901518255600182019150602085019450602081019050620004fd565b8683101562000544578489015162000540601f89168262000434565b8355505b6001600288020188555050505b505050505050565b600073ffffffffffffffffffffffffffffffffffffffff82169050919050565b6000620005868262000559565b9050919050565b620005988162000579565b82525050565b6000602082019050620005b560008301846200058d565b92915050565b612c1680620005cb6000396000f3fe608060405234801561001057600080fd5b50600436106101375760003560e01c806370a08231116100b8578063a22cb4651161007c578063a22cb4651461033c578063b88d4fde14610358578063c87b56dd14610374578063d5d60134146103a4578063e985e9c5146103d6578063f2fde38b1461040657610137565b806370a08231146102aa578063715018a6146102da5780638da5cb5b146102e457806395d89b4114610302578063a15ab08d1461032057610137565b806323b872dd116100ff57806323b872dd146101f45780633bb3a24d1461021057806342842e0e14610240578063561892361461025c5780636352211e1461027a57610137565b806301ffc9a71461013c57806306fdde031461016c578063081812fc1461018a578063095ea7b3146101ba57806315a9b1d2146101d6575b600080fd5b61015660048036038101906101519190611e94565b610422565b6040516101639190611edc565b60405180910390f35b610174610483565b6040516101819190611f87565b60405180910390f35b6101a4600480360381019061019f9190611fdf565b610515565b6040516101b1919061204d565b60405180910390f35b6101d460048036038101906101cf9190612094565b610531565b005b6101de610547565b6040516101eb919061224e565b60405180910390f35b61020e60048036038101906102099190612270565b610698565b005b61022a60048036038101906102259190611fdf565b61079a565b6040516102379190611f87565b60405180910390f35b61025a60048036038101906102559190612270565b6107ac565b005b6102646107cc565b60405161027191906122d2565b60405180910390f35b610294600480360381019061028f9190611fdf565b6107d6565b6040516102a1919061204d565b60405180910390f35b6102c460048036038101906102bf91906122ed565b6107e8565b6040516102d191906122d2565b60405180910390f35b6102e26108a2565b005b6102ec6108b6565b6040516102f9919061204d565b60405180910390f35b61030a6108e0565b6040516103179190611f87565b60405180910390f35b61033a6004803603810190610335919061244f565b610972565b005b610356600480360381019061035191906124d7565b610a77565b005b610372600480360381019061036d91906125b8565b610a8d565b005b61038e60048036038101906103899190611fdf565b610aaa565b60405161039b9190611f87565b60405180910390f35b6103be60048036038101906103b99190611fdf565b610bbd565b6040516103cd9392919061263b565b60405180910390f35b6103f060048036038101906103eb9190612679565b610c9f565b6040516103fd9190611edc565b60405180910390f35b610420600480360381019061041b91906122ed565b610d33565b005b6000634906490660e01b7bffffffffffffffffffffffffffffffffffffffffffffffffffffffff1916827bffffffffffffffffffffffffffffffffffffffffffffffffffffffff1916148061047c575061047b82610db9565b5b9050919050565b606060008054610492906126e8565b80601f01602080910402602001604051908101604052809291908181526020018280546104be906126e8565b801561050b5780601f106104e05761010080835404028352916020019161050b565b820191906000526020600020905b8154815290600101906020018083116104ee57829003601f168201915b5050505050905090565b600061052082610e9b565b5061052a82610f23565b9050919050565b610543828261053e610f60565b610f68565b5050565b60606009805480602002602001604051908101604052809291908181526020016000905b8282101561068f57838290600052602060002090600302016040518060600160405290816000820160009054906101000a900473ffffffffffffffffffffffffffffffffffffffff1673ffffffffffffffffffffffffffffffffffffffff1673ffffffffffffffffffffffffffffffffffffffff168152602001600182015481526020016002820180546105fe906126e8565b80601f016020809104026020016040519081016040528092919081815260200182805461062a906126e8565b80156106775780601f1061064c57610100808354040283529160200191610677565b820191906000526020600020905b81548152906001019060200180831161065a57829003601f168201915b5050505050815250508152602001906001019061056b565b50505050905090565b600073ffffffffffffffffffffffffffffffffffffffff168273ffffffffffffffffffffffffffffffffffffffff160361070a5760006040517f64a0ae92000000000000000000000000000000000000000000000000000000008152600401610701919061204d565b60405180910390fd5b600061071e8383610719610f60565b610f7a565b90508373ffffffffffffffffffffffffffffffffffffffff168173ffffffffffffffffffffffffffffffffffffffff1614610794578382826040517f64283d7b00000000000000000000000000000000000000000000000000000000815260040161078b93929190612719565b60405180910390fd5b50505050565b60606107a582610aaa565b9050919050565b6107c783838360405180602001604052806000815250610a8d565b505050565b6000600854905090565b60006107e182610e9b565b9050919050565b60008073ffffffffffffffffffffffffffffffffffffffff168273ffffffffffffffffffffffffffffffffffffffff160361085b5760006040517f89c62b64000000000000000000000000000000000000000000000000000000008152600401610852919061204d565b60405180910390fd5b600360008373ffffffffffffffffffffffffffffffffffffffff1673ffffffffffffffffffffffffffffffffffffffff168152602001908152602001600020549050919050565b6108aa611194565b6108b4600061121b565b565b6000600760009054906101000a900473ffffffffffffffffffffffffffffffffffffffff16905090565b6060600180546108ef906126e8565b80601f016020809104026020016040519081016040528092919081815260200182805461091b906126e8565b80156109685780601f1061093d57610100808354040283529160200191610968565b820191906000526020600020905b81548152906001019060200180831161094b57829003601f168201915b5050505050905090565b61097a611194565b6008600081548092919061098d9061277f565b919050555060006008549050600960405180606001604052808573ffffffffffffffffffffffffffffffffffffffff16815260200183815260200184815250908060018154018082558091505060019003906000526020600020906003020160009091909190915060008201518160000160006101000a81548173ffffffffffffffffffffffffffffffffffffffff021916908373ffffffffffffffffffffffffffffffffffffffff160217905550602082015181600101556040820151816002019081610a5b9190612973565b505050610a6883826112e1565b610a7281836112ff565b505050565b610a89610a82610f60565b838361135b565b5050565b610a98848484610698565b610aa4848484846114ca565b50505050565b6060610ab582610e9b565b506000600660008481526020019081526020016000208054610ad6906126e8565b80601f0160208091040260200160405190810160405280929190818152602001828054610b02906126e8565b8015610b4f5780601f10610b2457610100808354040283529160200191610b4f565b820191906000526020600020905b815481529060010190602001808311610b3257829003601f168201915b505050505090506000610b60611681565b90506000815103610b75578192505050610bb8565b600082511115610baa578082604051602001610b92929190612a81565b60405160208183030381529060405292505050610bb8565b610bb384611698565b925050505b919050565b60098181548110610bcd57600080fd5b90600052602060002090600302016000915090508060000160009054906101000a900473ffffffffffffffffffffffffffffffffffffffff1690806001015490806002018054610c1c906126e8565b80601f0160208091040260200160405190810160405280929190818152602001828054610c48906126e8565b8015610c955780601f10610c6a57610100808354040283529160200191610c95565b820191906000526020600020905b815481529060010190602001808311610c7857829003601f168201915b5050505050905083565b6000600560008473ffffffffffffffffffffffffffffffffffffffff1673ffffffffffffffffffffffffffffffffffffffff16815260200190815260200160002060008373ffffffffffffffffffffffffffffffffffffffff1673ffffffffffffffffffffffffffffffffffffffff16815260200190815260200160002060009054906101000a900460ff16905092915050565b610d3b611194565b600073ffffffffffffffffffffffffffffffffffffffff168173ffffffffffffffffffffffffffffffffffffffff1603610dad5760006040517f1e4fbdf7000000000000000000000000000000000000000000000000000000008152600401610da4919061204d565b60405180910390fd5b610db68161121b565b50565b60007f80ac58cd000000000000000000000000000000000000000000000000000000007bffffffffffffffffffffffffffffffffffffffffffffffffffffffff1916827bffffffffffffffffffffffffffffffffffffffffffffffffffffffff19161480610e8457507f5b5e139f000000000000000000000000000000000000000000000000000000007bffffffffffffffffffffffffffffffffffffffffffffffffffffffff1916827bffffffffffffffffffffffffffffffffffffffffffffffffffffffff1916145b80610e945750610e9382611701565b5b9050919050565b600080610ea78361176b565b9050600073ffffffffffffffffffffffffffffffffffffffff168173ffffffffffffffffffffffffffffffffffffffff1603610f1a57826040517f7e273289000000000000000000000000000000000000000000000000000000008152600401610f1191906122d2565b60405180910390fd5b80915050919050565b60006004600083815260200190815260200160002060009054906101000a900473ffffffffffffffffffffffffffffffffffffffff169050919050565b600033905090565b610f7583838360016117a8565b505050565b600080610f868461176b565b9050600073ffffffffffffffffffffffffffffffffffffffff168373ffffffffffffffffffffffffffffffffffffffff1614610fc857610fc781848661196d565b5b600073ffffffffffffffffffffffffffffffffffffffff168173ffffffffffffffffffffffffffffffffffffffff16146110595761100a6000856000806117a8565b6001600360008373ffffffffffffffffffffffffffffffffffffffff1673ffffffffffffffffffffffffffffffffffffffff168152602001908152602001600020600082825403925050819055505b600073ffffffffffffffffffffffffffffffffffffffff168573ffffffffffffffffffffffffffffffffffffffff16146110dc576001600360008773ffffffffffffffffffffffffffffffffffffffff1673ffffffffffffffffffffffffffffffffffffffff168152602001908152602001600020600082825401925050819055505b846002600086815260200190815260200160002060006101000a81548173ffffffffffffffffffffffffffffffffffffffff021916908373ffffffffffffffffffffffffffffffffffffffff160217905550838573ffffffffffffffffffffffffffffffffffffffff168273ffffffffffffffffffffffffffffffffffffffff167fddf252ad1be2c89b69c2b068fc378daa952ba7f163c4a11628f55a4df523b3ef60405160405180910390a4809150509392505050565b61119c610f60565b73ffffffffffffffffffffffffffffffffffffffff166111ba6108b6565b73ffffffffffffffffffffffffffffffffffffffff1614611219576111dd610f60565b6040517f118cdaa7000000000000000000000000000000000000000000000000000000008152600401611210919061204d565b60405180910390fd5b565b6000600760009054906101000a900473ffffffffffffffffffffffffffffffffffffffff16905081600760006101000a81548173ffffffffffffffffffffffffffffffffffffffff021916908373ffffffffffffffffffffffffffffffffffffffff1602179055508173ffffffffffffffffffffffffffffffffffffffff168173ffffffffffffffffffffffffffffffffffffffff167f8be0079c531659141344cd1fd0a4f28419497f9722a3daafe3b4186f6b6457e060405160405180910390a35050565b6112fb828260405180602001604052806000815250611a31565b5050565b8060066000848152602001908152602001600020908161131f9190612973565b507ff8e1a15aba9398e019f0b49df1a4fde98ee17ae345cb5f6b5e2c27f5033e8ce78260405161134f91906122d2565b60405180910390a15050565b600073ffffffffffffffffffffffffffffffffffffffff168273ffffffffffffffffffffffffffffffffffffffff16036113cc57816040517f5b08ba180000000000000000000000000000000000000000000000000000000081526004016113c3919061204d565b60405180910390fd5b80600560008573ffffffffffffffffffffffffffffffffffffffff1673ffffffffffffffffffffffffffffffffffffffff16815260200190815260200160002060008473ffffffffffffffffffffffffffffffffffffffff1673ffffffffffffffffffffffffffffffffffffffff16815260200190815260200160002060006101000a81548160ff0219169083151502179055508173ffffffffffffffffffffffffffffffffffffffff168373ffffffffffffffffffffffffffffffffffffffff167f17307eab39ab6107e8899845ad3d59bd9653f200f220920489ca2b5937696c31836040516114bd9190611edc565b60405180910390a3505050565b60008373ffffffffffffffffffffffffffffffffffffffff163b111561167b578273ffffffffffffffffffffffffffffffffffffffff1663150b7a0261150e610f60565b8685856040518563ffffffff1660e01b81526004016115309493929190612afa565b6020604051808303816000875af192505050801561156c57506040513d601f19601f820116820180604052508101906115699190612b5b565b60015b6115f0573d806000811461159c576040519150601f19603f3d011682016040523d82523d6000602084013e6115a1565b606091505b5060008151036115e857836040517f64a0ae920000000000000000000000000000000000000000000000000000000081526004016115df919061204d565b60405180910390fd5b805181602001fd5b63150b7a0260e01b7bffffffffffffffffffffffffffffffffffffffffffffffffffffffff1916817bffffffffffffffffffffffffffffffffffffffffffffffffffffffff19161461167957836040517f64a0ae92000000000000000000000000000000000000000000000000000000008152600401611670919061204d565b60405180910390fd5b505b50505050565b606060405180602001604052806000815250905090565b60606116a382610e9b565b5060006116ae611681565b905060008151116116ce57604051806020016040528060008152506116f9565b806116d884611a4d565b6040516020016116e9929190612a81565b6040516020818303038152906040525b915050919050565b60007f01ffc9a7000000000000000000000000000000000000000000000000000000007bffffffffffffffffffffffffffffffffffffffffffffffffffffffff1916827bffffffffffffffffffffffffffffffffffffffffffffffffffffffff1916149050919050565b60006002600083815260200190815260200160002060009054906101000a900473ffffffffffffffffffffffffffffffffffffffff169050919050565b80806117e15750600073ffffffffffffffffffffffffffffffffffffffff168273ffffffffffffffffffffffffffffffffffffffff1614155b156119155760006117f184610e9b565b9050600073ffffffffffffffffffffffffffffffffffffffff168373ffffffffffffffffffffffffffffffffffffffff161415801561185c57508273ffffffffffffffffffffffffffffffffffffffff168173ffffffffffffffffffffffffffffffffffffffff1614155b801561186f575061186d8184610c9f565b155b156118b157826040517fa9fbf51f0000000000000000000000000000000000000000000000000000000081526004016118a8919061204d565b60405180910390fd5b811561191357838573ffffffffffffffffffffffffffffffffffffffff168273ffffffffffffffffffffffffffffffffffffffff167f8c5be1e5ebec7d5bd14f71427d1e84f3dd0314c0f7b2291e5b200ac8c7c3b92560405160405180910390a45b505b836004600085815260200190815260200160002060006101000a81548173ffffffffffffffffffffffffffffffffffffffff021916908373ffffffffffffffffffffffffffffffffffffffff16021790555050505050565b611978838383611b1b565b611a2c57600073ffffffffffffffffffffffffffffffffffffffff168373ffffffffffffffffffffffffffffffffffffffff16036119ed57806040517f7e2732890000000000000000000000000000000000000000000000000000000081526004016119e491906122d2565b60405180910390fd5b81816040517f177e802f000000000000000000000000000000000000000000000000000000008152600401611a23929190612b88565b60405180910390fd5b505050565b611a3b8383611bdc565b611a4860008484846114ca565b505050565b606060006001611a5c84611cd5565b01905060008167ffffffffffffffff811115611a7b57611a7a612324565b5b6040519080825280601f01601f191660200182016040528015611aad5781602001600182028036833780820191505090505b509050600082602001820190505b600115611b10578080600190039150507f3031323334353637383961626364656600000000000000000000000000000000600a86061a8153600a8581611b0457611b03612bb1565b5b04945060008503611abb575b819350505050919050565b60008073ffffffffffffffffffffffffffffffffffffffff168373ffffffffffffffffffffffffffffffffffffffff1614158015611bd357508273ffffffffffffffffffffffffffffffffffffffff168473ffffffffffffffffffffffffffffffffffffffff161480611b945750611b938484610c9f565b5b80611bd257508273ffffffffffffffffffffffffffffffffffffffff16611bba83610f23565b73ffffffffffffffffffffffffffffffffffffffff16145b5b90509392505050565b600073ffffffffffffffffffffffffffffffffffffffff168273ffffffffffffffffffffffffffffffffffffffff1603611c4e5760006040517f64a0ae92000000000000000000000000000000000000000000000000000000008152600401611c45919061204d565b60405180910390fd5b6000611c5c83836000610f7a565b9050600073ffffffffffffffffffffffffffffffffffffffff168173ffffffffffffffffffffffffffffffffffffffff1614611cd05760006040517f73c6ac6e000000000000000000000000000000000000000000000000000000008152600401611cc7919061204d565b60405180910390fd5b505050565b600080600090507a184f03e93ff9f4daa797ed6e38ed64bf6a1f0100000000000000008310611d33577a184f03e93ff9f4daa797ed6e38ed64bf6a1f0100000000000000008381611d2957611d28612bb1565b5b0492506040810190505b6d04ee2d6d415b85acef81000000008310611d70576d04ee2d6d415b85acef81000000008381611d6657611d65612bb1565b5b0492506020810190505b662386f26fc100008310611d9f57662386f26fc100008381611d9557611d94612bb1565b5b0492506010810190505b6305f5e1008310611dc8576305f5e1008381611dbe57611dbd612bb1565b5b0492506008810190505b6127108310611ded576127108381611de357611de2612bb1565b5b0492506004810190505b60648310611e105760648381611e0657611e05612bb1565b5b0492506002810190505b600a8310611e1f576001810190505b80915050919050565b6000604051905090565b600080fd5b600080fd5b60007fffffffff0000000000000000000000000000000000000000000000000000000082169050919050565b611e7181611e3c565b8114611e7c57600080fd5b50565b600081359050611e8e81611e68565b92915050565b600060208284031215611eaa57611ea9611e32565b5b6000611eb884828501611e7f565b91505092915050565b60008115159050919050565b611ed681611ec1565b82525050565b6000602082019050611ef16000830184611ecd565b92915050565b600081519050919050565b600082825260208201905092915050565b60005b83811015611f31578082015181840152602081019050611f16565b60008484015250505050565b6000601f19601f8301169050919050565b6000611f5982611ef7565b611f638185611f02565b9350611f73818560208601611f13565b611f7c81611f3d565b840191505092915050565b60006020820190508181036000830152611fa18184611f4e565b905092915050565b6000819050919050565b611fbc81611fa9565b8114611fc757600080fd5b50565b600081359050611fd981611fb3565b92915050565b600060208284031215611ff557611ff4611e32565b5b600061200384828501611fca565b91505092915050565b600073ffffffffffffffffffffffffffffffffffffffff82169050919050565b60006120378261200c565b9050919050565b6120478161202c565b82525050565b6000602082019050612062600083018461203e565b92915050565b6120718161202c565b811461207c57600080fd5b50565b60008135905061208e81612068565b92915050565b600080604083850312156120ab576120aa611e32565b5b60006120b98582860161207f565b92505060206120ca85828601611fca565b9150509250929050565b600081519050919050565b600082825260208201905092915050565b6000819050602082019050919050565b6121098161202c565b82525050565b61211881611fa9565b82525050565b600082825260208201905092915050565b600061213a82611ef7565b612144818561211e565b9350612154818560208601611f13565b61215d81611f3d565b840191505092915050565b60006060830160008301516121806000860182612100565b506020830151612193602086018261210f565b50604083015184820360408601526121ab828261212f565b9150508091505092915050565b60006121c48383612168565b905092915050565b6000602082019050919050565b60006121e4826120d4565b6121ee81856120df565b935083602082028501612200856120f0565b8060005b8581101561223c578484038952815161221d85826121b8565b9450612228836121cc565b925060208a01995050600181019050612204565b50829750879550505050505092915050565b6000602082019050818103600083015261226881846121d9565b905092915050565b60008060006060848603121561228957612288611e32565b5b60006122978682870161207f565b93505060206122a88682870161207f565b92505060406122b986828701611fca565b9150509250925092565b6122cc81611fa9565b82525050565b60006020820190506122e760008301846122c3565b92915050565b60006020828403121561230357612302611e32565b5b60006123118482850161207f565b91505092915050565b600080fd5b600080fd5b7f4e487b7100000000000000000000000000000000000000000000000000000000600052604160045260246000fd5b61235c82611f3d565b810181811067ffffffffffffffff8211171561237b5761237a612324565b5b80604052505050565b600061238e611e28565b905061239a8282612353565b919050565b600067ffffffffffffffff8211156123ba576123b9612324565b5b6123c382611f3d565b9050602081019050919050565b82818337600083830152505050565b60006123f26123ed8461239f565b612384565b90508281526020810184848401111561240e5761240d61231f565b5b6124198482856123d0565b509392505050565b600082601f8301126124365761243561231a565b5b81356124468482602086016123df565b91505092915050565b6000806040838503121561246657612465611e32565b5b60006124748582860161207f565b925050602083013567ffffffffffffffff81111561249557612494611e37565b5b6124a185828601612421565b9150509250929050565b6124b481611ec1565b81146124bf57600080fd5b50565b6000813590506124d1816124ab565b92915050565b600080604083850312156124ee576124ed611e32565b5b60006124fc8582860161207f565b925050602061250d858286016124c2565b9150509250929050565b600067ffffffffffffffff82111561253257612531612324565b5b61253b82611f3d565b9050602081019050919050565b600061255b61255684612517565b612384565b9050828152602081018484840111156125775761257661231f565b5b6125828482856123d0565b509392505050565b600082601f83011261259f5761259e61231a565b5b81356125af848260208601612548565b91505092915050565b600080600080608085870312156125d2576125d1611e32565b5b60006125e08782880161207f565b94505060206125f18782880161207f565b935050604061260287828801611fca565b925050606085013567ffffffffffffffff81111561262357612622611e37565b5b61262f8782880161258a565b91505092959194509250565b6000606082019050612650600083018661203e565b61265d60208301856122c3565b818103604083015261266f8184611f4e565b9050949350505050565b600080604083850312156126905761268f611e32565b5b600061269e8582860161207f565b92505060206126af8582860161207f565b9150509250929050565b7f4e487b7100000000000000000000000000000000000000000000000000000000600052602260045260246000fd5b6000600282049050600182168061270057607f821691505b602082108103612713576127126126b9565b5b50919050565b600060608201905061272e600083018661203e565b61273b60208301856122c3565b612748604083018461203e565b949350505050565b7f4e487b7100000000000000000000000000000000000000000000000000000000600052601160045260246000fd5b600061278a82611fa9565b91507fffffffffffffffffffffffffffffffffffffffffffffffffffffffffffffffff82036127bc576127bb612750565b5b600182019050919050565b60008190508160005260206000209050919050565b60006020601f8301049050919050565b600082821b905092915050565b6000600883026128297fffffffffffffffffffffffffffffffffffffffffffffffffffffffffffffffff826127ec565b61283386836127ec565b95508019841693508086168417925050509392505050565b6000819050919050565b600061287061286b61286684611fa9565b61284b565b611fa9565b9050919050565b6000819050919050565b61288a83612855565b61289e61289682612877565b8484546127f9565b825550505050565b600090565b6128b36128a6565b6128be818484612881565b505050565b5b818110156128e2576128d76000826128ab565b6001810190506128c4565b5050565b601f821115612927576128f8816127c7565b612901846127dc565b81016020851015612910578190505b61292461291c856127dc565b8301826128c3565b50505b505050565b600082821c905092915050565b600061294a6000198460080261292c565b1980831691505092915050565b60006129638383612939565b9150826002028217905092915050565b61297c82611ef7565b67ffffffffffffffff81111561299557612994612324565b5b61299f82546126e8565b6129aa8282856128e6565b600060209050601f8311600181146129dd57600084156129cb578287015190505b6129d58582612957565b865550612a3d565b601f1984166129eb866127c7565b60005b82811015612a13578489015182556001820191506020850194506020810190506129ee565b86831015612a305784890151612a2c601f891682612939565b8355505b6001600288020188555050505b505050505050565b600081905092915050565b6000612a5b82611ef7565b612a658185612a45565b9350612a75818560208601611f13565b80840191505092915050565b6000612a8d8285612a50565b9150612a998284612a50565b91508190509392505050565b600081519050919050565b600082825260208201905092915050565b6000612acc82612aa5565b612ad68185612ab0565b9350612ae6818560208601611f13565b612aef81611f3d565b840191505092915050565b6000608082019050612b0f600083018761203e565b612b1c602083018661203e565b612b2960408301856122c3565b8181036060830152612b3b8184612ac1565b905095945050505050565b600081519050612b5581611e68565b92915050565b600060208284031215612b7157612b70611e32565b5b6000612b7f84828501612b46565b91505092915050565b6000604082019050612b9d600083018561203e565b612baa60208301846122c3565b9392505050565b7f4e487b7100000000000000000000000000000000000000000000000000000000600052601260045260246000fdfea264697066735822122039232fd9165f85d43dea2ea2150859047f43536ed7a26b42acb05b8b2c4d769b64736f6c63430008180033",
  "devdoc": {
    "errors": {
      "ERC721IncorrectOwner(address,uint256,address)": [
        {
          "details": "Indicates an error related to the ownership over a particular token. Used in transfers.",
          "params": {
            "owner": "Address of the current owner of a token.",
            "sender": "Address whose tokens are being transferred.",
            "tokenId": "Identifier number of a token."
          }
        }
      ],
      "ERC721InsufficientApproval(address,uint256)": [
        {
          "details": "Indicates a failure with the `operator`s approval. Used in transfers.",
          "params": {
            "operator": "Address that may be allowed to operate on tokens without being their owner.",
            "tokenId": "Identifier number of a token."
          }
        }
      ],
      "ERC721InvalidApprover(address)": [
        {
          "details": "Indicates a failure with the `approver` of a token to be approved. Used in approvals.",
          "params": {
            "approver": "Address initiating an approval operation."
          }
        }
      ],
      "ERC721InvalidOperator(address)": [
        {
          "details": "Indicates a failure with the `operator` to be approved. Used in approvals.",
          "params": {
            "operator": "Address that may be allowed to operate on tokens without being their owner."
          }
        }
      ],
      "ERC721InvalidOwner(address)": [
        {
          "details": "Indicates that an address can't be an owner. For example, `address(0)` is a forbidden owner in EIP-20. Used in balance queries.",
          "params": {
            "owner": "Address of the current owner of a token."
          }
        }
      ],
      "ERC721InvalidReceiver(address)": [
        {
          "details": "Indicates a failure with the token `receiver`. Used in transfers.",
          "params": {
            "receiver": "Address to which tokens are being transferred."
          }
        }
      ],
      "ERC721InvalidSender(address)": [
        {
          "details": "Indicates a failure with the token `sender`. Used in transfers.",
          "params": {
            "sender": "Address whose tokens are being transferred."
          }
        }
      ],
      "ERC721NonexistentToken(uint256)": [
        {
          "details": "Indicates a `tokenId` whose `owner` is the zero address.",
          "params": {
            "tokenId": "Identifier number of a token."
          }
        }
      ],
      "OwnableInvalidOwner(address)": [
        {
          "details": "The owner is not a valid owner account. (eg. `address(0)`)"
        }
      ],
      "OwnableUnauthorizedAccount(address)": [
        {
          "details": "The caller account is not authorized to perform an operation."
        }
      ]
    },
    "events": {
      "Approval(address,address,uint256)": {
        "details": "Emitted when `owner` enables `approved` to manage the `tokenId` token."
      },
      "ApprovalForAll(address,address,bool)": {
        "details": "Emitted when `owner` enables or disables (`approved`) `operator` to manage all of its assets."
      },
      "BatchMetadataUpdate(uint256,uint256)": {
        "details": "This event emits when the metadata of a range of tokens is changed. So that the third-party platforms such as NFT market could timely update the images and related attributes of the NFTs."
      },
      "MetadataUpdate(uint256)": {
        "details": "This event emits when the metadata of a token is changed. So that the third-party platforms such as NFT market could timely update the images and related attributes of the NFT."
      },
      "Transfer(address,address,uint256)": {
        "details": "Emitted when `tokenId` token is transferred from `from` to `to`."
      }
    },
    "kind": "dev",
    "methods": {
      "approve(address,uint256)": {
        "details": "See {IERC721-approve}."
      },
      "balanceOf(address)": {
        "details": "See {IERC721-balanceOf}."
      },
      "getApproved(uint256)": {
        "details": "See {IERC721-getApproved}."
      },
      "isApprovedForAll(address,address)": {
        "details": "See {IERC721-isApprovedForAll}."
      },
      "name()": {
        "details": "See {IERC721Metadata-name}."
      },
      "owner()": {
        "details": "Returns the address of the current owner."
      },
      "ownerOf(uint256)": {
        "details": "See {IERC721-ownerOf}."
      },
      "renounceOwnership()": {
        "details": "Leaves the contract without owner. It will not be possible to call `onlyOwner` functions. Can only be called by the current owner. NOTE: Renouncing ownership will leave the contract without an owner, thereby disabling any functionality that is only available to the owner."
      },
      "safeTransferFrom(address,address,uint256)": {
        "details": "See {IERC721-safeTransferFrom}."
      },
      "safeTransferFrom(address,address,uint256,bytes)": {
        "details": "See {IERC721-safeTransferFrom}."
      },
      "setApprovalForAll(address,bool)": {
        "details": "See {IERC721-setApprovalForAll}."
      },
      "supportsInterface(bytes4)": {
        "details": "See {IERC165-supportsInterface}"
      },
      "symbol()": {
        "details": "See {IERC721Metadata-symbol}."
      },
      "tokenURI(uint256)": {
        "details": "See {IERC721Metadata-tokenURI}."
      },
      "transferFrom(address,address,uint256)": {
        "details": "See {IERC721-transferFrom}."
      },
      "transferOwnership(address)": {
        "details": "Transfers ownership of the contract to a new account (`newOwner`). Can only be called by the current owner."
      }
    },
    "version": 1
  },
  "userdoc": {
    "kind": "user",
    "methods": {},
    "version": 1
  },
  "storageLayout": {
    "storage": [
      {
        "astId": 349,
        "contract": "contracts/NFT.sol:NFT",
        "label": "_name",
        "offset": 0,
        "slot": "0",
        "type": "t_string_storage"
      },
      {
        "astId": 351,
        "contract": "contracts/NFT.sol:NFT",
        "label": "_symbol",
        "offset": 0,
        "slot": "1",
        "type": "t_string_storage"
      },
      {
        "astId": 355,
        "contract": "contracts/NFT.sol:NFT",
        "label": "_owners",
        "offset": 0,
        "slot": "2",
        "type": "t_mapping(t_uint256,t_address)"
      },
      {
        "astId": 359,
        "contract": "contracts/NFT.sol:NFT",
        "label": "_balances",
        "offset": 0,
        "slot": "3",
        "type": "t_mapping(t_address,t_uint256)"
      },
      {
        "astId": 363,
        "contract": "contracts/NFT.sol:NFT",
        "label": "_tokenApprovals",
        "offset": 0,
        "slot": "4",
        "type": "t_mapping(t_uint256,t_address)"
      },
      {
        "astId": 369,
        "contract": "contracts/NFT.sol:NFT",
        "label": "_operatorApprovals",
        "offset": 0,
        "slot": "5",
        "type": "t_mapping(t_address,t_mapping(t_address,t_bool))"
      },
      {
        "astId": 1488,
        "contract": "contracts/NFT.sol:NFT",
        "label": "_tokenURIs",
        "offset": 0,
        "slot": "6",
        "type": "t_mapping(t_uint256,t_string_storage)"
      },
      {
        "astId": 8,
        "contract": "contracts/NFT.sol:NFT",
        "label": "_owner",
        "offset": 0,
        "slot": "7",
        "type": "t_address"
      },
      {
        "astId": 3104,
        "contract": "contracts/NFT.sol:NFT",
        "label": "_tokenIds",
        "offset": 0,
        "slot": "8",
        "type": "t_uint256"
      },
      {
        "astId": 3127,
        "contract": "contracts/NFT.sol:NFT",
        "label": "nftdata",
        "offset": 0,
        "slot": "9",
        "type": "t_array(t_struct(NFTdata)3123_storage)dyn_storage"
      }
    ],
    "types": {
      "t_address": {
        "encoding": "inplace",
        "label": "address",
        "numberOfBytes": "20"
      },
      "t_array(t_struct(NFTdata)3123_storage)dyn_storage": {
        "base": "t_struct(NFTdata)3123_storage",
        "encoding": "dynamic_array",
        "label": "struct NFT.NFTdata[]",
        "numberOfBytes": "32"
      },
      "t_bool": {
        "encoding": "inplace",
        "label": "bool",
        "numberOfBytes": "1"
      },
      "t_mapping(t_address,t_bool)": {
        "encoding": "mapping",
        "key": "t_address",
        "label": "mapping(address => bool)",
        "numberOfBytes": "32",
        "value": "t_bool"
      },
      "t_mapping(t_address,t_mapping(t_address,t_bool))": {
        "encoding": "mapping",
        "key": "t_address",
        "label": "mapping(address => mapping(address => bool))",
        "numberOfBytes": "32",
        "value": "t_mapping(t_address,t_bool)"
      },
      "t_mapping(t_address,t_uint256)": {
        "encoding": "mapping",
        "key": "t_address",
        "label": "mapping(address => uint256)",
        "numberOfBytes": "32",
        "value": "t_uint256"
      },
      "t_mapping(t_uint256,t_address)": {
        "encoding": "mapping",
        "key": "t_uint256",
        "label": "mapping(uint256 => address)",
        "numberOfBytes": "32",
        "value": "t_address"
      },
      "t_mapping(t_uint256,t_string_storage)": {
        "encoding": "mapping",
        "key": "t_uint256",
        "label": "mapping(uint256 => string)",
        "numberOfBytes": "32",
        "value": "t_string_storage"
      },
      "t_string_storage": {
        "encoding": "bytes",
        "label": "string",
        "numberOfBytes": "32"
      },
      "t_struct(NFTdata)3123_storage": {
        "encoding": "inplace",
        "label": "struct NFT.NFTdata",
        "members": [
          {
            "astId": 3118,
            "contract": "contracts/NFT.sol:NFT",
            "label": "ownerOfNFT",
            "offset": 0,
            "slot": "0",
            "type": "t_address"
          },
          {
            "astId": 3120,
            "contract": "contracts/NFT.sol:NFT",
            "label": "tokenId",
            "offset": 0,
            "slot": "1",
            "type": "t_uint256"
          },
          {
            "astId": 3122,
            "contract": "contracts/NFT.sol:NFT",
            "label": "tokenURI",
            "offset": 0,
            "slot": "2",
            "type": "t_string_storage"
          }
        ],
        "numberOfBytes": "96"
      },
      "t_uint256": {
        "encoding": "inplace",
        "label": "uint256",
        "numberOfBytes": "32"
      }
    }
  }
}